{
  "transactions": [
    {
      "hash": "0xeafea7c5b26a14425aafa23f02b66cc8f98318d6f1bd804c8abb72e6e87b6560",
      "transactionType": "CALL",
      "contractName": null,
      "contractAddress": "0xDb8CA558D7988D5A436B3d72479050a1BEC0e8CC",
      "function": "transfer(address,uint256)",
      "arguments": [
        "0xf0c3089bC8Eb6bF6f4173FC6597B568332Fd535A",
        "500000000000000000000"
      ],
      "transaction": {
        "type": "0x02",
        "from": "0x2d983acb11875cba7cc96c91676e4a08d864fea4",
        "to": "0xdb8ca558d7988d5a436b3d72479050a1bec0e8cc",
        "gas": "0x326a6",
        "value": "0x0",
        "data": "0xa9059cbb000000000000000000000000f0c3089bc8eb6bf6f4173fc6597b568332fd535a00000000000000000000000000000000000000000000001b1ae4d6e2ef500000",
        "nonce": "0x10",
        "accessList": []
      },
      "additionalContracts": [],
      "isFixedGasLimit": false
    }
  ],
  "receipts": [
    {
      "transactionHash": "0xeafea7c5b26a14425aafa23f02b66cc8f98318d6f1bd804c8abb72e6e87b6560",
      "transactionIndex": "0x1",
      "blockHash": "0xa28e783ac512e8aa3d7593eba07254d7342ad8524dbd34cce249839315866384",
      "blockNumber": "0x1304c6",
      "from": "0x2d983acB11875Cba7cC96C91676E4a08d864Fea4",
      "to": "0xDb8CA558D7988D5A436B3d72479050a1BEC0e8CC",
      "cumulativeGasUsed": "0x2f30f",
      "gasUsed": "0x24800",
      "contractAddress": null,
      "logs": [
        {
          "address": "0xe45E8338Ad5c751CE4A9D344309ABa7db43F69Ed",
          "topics": [
            "0x8c0b5119d4cec7b284c6b1b39252a03d1e2f2d7451a5895562524c113bb952be",
            "0x7462746573745f6f726200000000000042616c616e6365730000000000000000"
          ],
          "data": "0x0000000000000000000000000000000000000000000000000000000000000060000000000000000000000000000000000000000000000000000000000000000000000000000000000000000000000000000000000000000000000000000000a000000000000000000000000000000000000000000000000000000000000000010000000000000000000000002d983acb11875cba7cc96c91676e4a08d864fea40000000000000000000000000000000000000000000000000000000000000020000000000000000000000000000000000000000000000202fefbf2d7c2f00000",
          "blockHash": "0xa28e783ac512e8aa3d7593eba07254d7342ad8524dbd34cce249839315866384",
          "blockNumber": "0x1304c6",
          "transactionHash": "0xeafea7c5b26a14425aafa23f02b66cc8f98318d6f1bd804c8abb72e6e87b6560",
          "transactionIndex": "0x1",
          "logIndex": "0x0",
          "removed": false
        },
        {
          "address": "0xe45E8338Ad5c751CE4A9D344309ABa7db43F69Ed",
          "topics": [
            "0x8c0b5119d4cec7b284c6b1b39252a03d1e2f2d7451a5895562524c113bb952be",
            "0x7462746573745f6f726200000000000042616c616e6365730000000000000000"
          ],
          "data": "0x0000000000000000000000000000000000000000000000000000000000000060000000000000000000000000000000000000000000000000000000000000000000000000000000000000000000000000000000000000000000000000000000a00000000000000000000000000000000000000000000000000000000000000001000000000000000000000000f0c3089bc8eb6bf6f4173fc6597b568332fd535a000000000000000000000000000000000000000000000000000000000000002000000000000000000000000000000000000000000000001b1ae4d6e2ef500000",
          "blockHash": "0xa28e783ac512e8aa3d7593eba07254d7342ad8524dbd34cce249839315866384",
          "blockNumber": "0x1304c6",
          "transactionHash": "0xeafea7c5b26a14425aafa23f02b66cc8f98318d6f1bd804c8abb72e6e87b6560",
          "transactionIndex": "0x1",
          "logIndex": "0x1",
          "removed": false
        },
        {
          "address": "0xDb8CA558D7988D5A436B3d72479050a1BEC0e8CC",
          "topics": [
            "0xddf252ad1be2c89b69c2b068fc378daa952ba7f163c4a11628f55a4df523b3ef",
            "0x0000000000000000000000002d983acb11875cba7cc96c91676e4a08d864fea4",
            "0x000000000000000000000000f0c3089bc8eb6bf6f4173fc6597b568332fd535a"
          ],
          "data": "0x00000000000000000000000000000000000000000000001b1ae4d6e2ef500000",
          "blockHash": "0xa28e783ac512e8aa3d7593eba07254d7342ad8524dbd34cce249839315866384",
          "blockNumber": "0x1304c6",
          "transactionHash": "0xeafea7c5b26a14425aafa23f02b66cc8f98318d6f1bd804c8abb72e6e87b6560",
          "transactionIndex": "0x1",
          "logIndex": "0x2",
          "removed": false
        }
      ],
      "status": "0x1",
      "logsBloom": "0x00000000000000000000000000000000000000001000000000000000000000000000000000000000000000000000000000000000040000400000000000000000000000800000000000000008000008000000000000080008000000000100000000000000000000000000008000000000000000000000000000000010000000000000008000000000000000002000000000000000000000000000000000000000000000000000000020000000000000000000000000000000080080000000000000000002000000000000100004000000010000000000000000000000000000000000000400000000000000000000000000000000000000000000000000000000",
      "type": "0x2",
      "effectiveGasPrice": "0xb2d05e32"
    }
  ],
  "libraries": [],
  "pending": [],
  "returns": {},
  "timestamp": 1714662669,
  "chain": 17069,
  "multi": false,
  "commit": "29654d5"
}