{
  "transactions": [
    {
      "hash": "0x9c53999dbbcbd13059a7f1d26b711d20232ce26c304d80266385b221f385bea5",
      "transactionType": "CALL",
      "contractName": null,
      "contractAddress": "0xE6a770840F35A72f8D8aA1A74150752e78324fa0",
      "function": null,
      "arguments": null,
      "transaction": {
        "type": "0x02",
        "from": "0x2d983acb11875cba7cc96c91676e4a08d864fea4",
        "to": "0xe6a770840f35a72f8d8aa1a74150752e78324fa0",
        "gas": "0x7f51",
        "value": "0x0",
        "data": "0x8da5cb5b",
        "nonce": "0xe",
        "accessList": []
      },
      "additionalContracts": [],
      "isFixedGasLimit": false
    },
    {
      "hash": "0x1011e63daeb2ac8899e569b79c19a84692e269ca9850e6e528063b424624d1b7",
      "transactionType": "CALL",
      "contractName": null,
      "contractAddress": "0xE6a770840F35A72f8D8aA1A74150752e78324fa0",
      "function": "world()",
      "arguments": [],
      "transaction": {
        "type": "0x02",
        "from": "0x2d983acb11875cba7cc96c91676e4a08d864fea4",
        "to": "0xe6a770840f35a72f8d8aa1a74150752e78324fa0",
        "gas": "0x808a",
        "value": "0x0",
        "data": "0x30b67baa",
        "nonce": "0xf",
        "accessList": []
      },
      "additionalContracts": [],
      "isFixedGasLimit": false
    },
    {
      "hash": "0x4e5866bd29244fa6d7dd20f878ca8690f658d5f1ce7c8a422c7b0ba5a11729d4",
      "transactionType": "CALL",
      "contractName": null,
      "contractAddress": "0xE6a770840F35A72f8D8aA1A74150752e78324fa0",
      "function": null,
      "arguments": null,
      "transaction": {
        "type": "0x02",
        "from": "0x2d983acb11875cba7cc96c91676e4a08d864fea4",
        "to": "0xe6a770840f35a72f8d8aa1a74150752e78324fa0",
        "gas": "0x7f3a",
        "value": "0x0",
        "data": "0xfa0c906b",
        "nonce": "0x10",
        "accessList": []
      },
      "additionalContracts": [],
      "isFixedGasLimit": false
    },
    {
      "hash": "0x734dbcac778b3e9a08e143db3202b7f2f2ef685d33585df14996e7cfd3ca4abb",
      "transactionType": "CALL",
      "contractName": null,
      "contractAddress": "0xDb8CA558D7988D5A436B3d72479050a1BEC0e8CC",
      "function": "transfer(address,uint256)",
      "arguments": [
        "0xf0c3089bC8Eb6bF6f4173FC6597B568332Fd535A",
        "500000000000000000000"
      ],
      "transaction": {
        "type": "0x02",
        "from": "0x2d983acb11875cba7cc96c91676e4a08d864fea4",
        "to": "0xdb8ca558d7988d5a436b3d72479050a1bec0e8cc",
        "gas": "0x326a6",
        "value": "0x0",
        "data": "0xa9059cbb000000000000000000000000f0c3089bc8eb6bf6f4173fc6597b568332fd535a00000000000000000000000000000000000000000000001b1ae4d6e2ef500000",
        "nonce": "0x11",
        "accessList": []
      },
      "additionalContracts": [],
      "isFixedGasLimit": false
    }
  ],
  "receipts": [
    {
      "transactionHash": "0x9c53999dbbcbd13059a7f1d26b711d20232ce26c304d80266385b221f385bea5",
      "transactionIndex": "0x1",
      "blockHash": "0xca42d83f11052b89a3af4544b726458861d94b267f6751069a2c5eae0e1e486e",
      "blockNumber": "0x1303ea",
      "from": "0x2d983acB11875Cba7cC96C91676E4a08d864Fea4",
      "to": "0xE6a770840F35A72f8D8aA1A74150752e78324fa0",
      "cumulativeGasUsed": "0x10731",
      "gasUsed": "0x5c2e",
      "contractAddress": null,
      "logs": [],
      "status": "0x1",
      "logsBloom": "0x00000000000000000000000000000000000000000000000000000000000000000000000000000000000000000000000000000000000000000000000000000000000000000000000000000000000000000000000000000000000000000000000000000000000000000000000000000000000000000000000000000000000000000000000000000000000000000000000000000000000000000000000000000000000000000000000000000000000000000000000000000000000000000000000000000000000000000000000000000000000000000000000000000000000000000000000000000000000000000000000000000000000000000000000000000000",
      "type": "0x2",
      "effectiveGasPrice": "0xb2d05e32"
    },
    {
      "transactionHash": "0x1011e63daeb2ac8899e569b79c19a84692e269ca9850e6e528063b424624d1b7",
      "transactionIndex": "0x2",
      "blockHash": "0xca42d83f11052b89a3af4544b726458861d94b267f6751069a2c5eae0e1e486e",
      "blockNumber": "0x1303ea",
      "from": "0x2d983acB11875Cba7cC96C91676E4a08d864Fea4",
      "to": "0xE6a770840F35A72f8D8aA1A74150752e78324fa0",
      "cumulativeGasUsed": "0x16441",
      "gasUsed": "0x5d10",
      "contractAddress": null,
      "logs": [],
      "status": "0x1",
      "logsBloom": "0x00000000000000000000000000000000000000000000000000000000000000000000000000000000000000000000000000000000000000000000000000000000000000000000000000000000000000000000000000000000000000000000000000000000000000000000000000000000000000000000000000000000000000000000000000000000000000000000000000000000000000000000000000000000000000000000000000000000000000000000000000000000000000000000000000000000000000000000000000000000000000000000000000000000000000000000000000000000000000000000000000000000000000000000000000000000",
      "type": "0x2",
      "effectiveGasPrice": "0xb2d05e32"
    }
  ],
  "libraries": [],
  "pending": [],
  "returns": {},
  "timestamp": 1714662259,
  "chain": 17069,
  "multi": false,
  "commit": "29654d5"
}