{
  "transactions": [
    {
      "hash": "0xeafea7c5b26a14425aafa23f02b66cc8f98318d6f1bd804c8abb72e6e87b6560",
      "transactionType": "CALL",
      "contractName": null,
      "contractAddress": "0xDb8CA558D7988D5A436B3d72479050a1BEC0e8CC",
      "function": "transfer(address,uint256)",
      "arguments": [
        "0xf0c3089bC8Eb6bF6f4173FC6597B568332Fd535A",
        "500000000000000000000"
      ],
      "transaction": {
        "type": "0x02",
        "from": "0x2d983acb11875cba7cc96c91676e4a08d864fea4",
        "to": "0xdb8ca558d7988d5a436b3d72479050a1bec0e8cc",
        "gas": "0x326a6",
        "value": "0x0",
        "data": "0xa9059cbb000000000000000000000000f0c3089bc8eb6bf6f4173fc6597b568332fd535a00000000000000000000000000000000000000000000001b1ae4d6e2ef500000",
        "nonce": "0x10",
        "accessList": []
      },
      "additionalContracts": [],
      "isFixedGasLimit": false
    }
  ],
  "receipts": [],
  "libraries": [],
  "pending": [
    "0xeafea7c5b26a14425aafa23f02b66cc8f98318d6f1bd804c8abb72e6e87b6560"
  ],
  "returns": {},
  "timestamp": 1714662663,
  "chain": 17069,
  "multi": false,
  "commit": "29654d5"
}