{
  "transactions": [
    {
      "hash": "0x401ad89b9789fb3c6eef73f864bfcbc0063a223a12a53bbf213dfc2fb5890585",
      "transactionType": "CALL",
      "contractName": null,
      "contractAddress": "0xdb8ca558d7988d5a436b3d72479050a1bec0e8cc",
      "function": "transfer(address,uint256)",
      "arguments": [
        "0x18f74c31063B150eA934d6F28168552c838acE6B",
        "500000000000000000000"
      ],
      "transaction": {
        "from": "0x2d983acb11875cba7cc96c91676e4a08d864fea4",
        "to": "0xdb8ca558d7988d5a436b3d72479050a1bec0e8cc",
        "gas": "0x326a6",
        "value": "0x0",
        "input": "0xa9059cbb00000000000000000000000018f74c31063b150ea934d6f28168552c838ace6b00000000000000000000000000000000000000000000001b1ae4d6e2ef500000",
        "nonce": "0x1b",
        "chainId": "0x42ad"
      },
      "additionalContracts": [],
      "isFixedGasLimit": false
    }
  ],
  "receipts": [
    {
      "status": "0x1",
      "cumulativeGasUsed": "0x61e26",
      "logs": [
        {
          "address": "0xe45e8338ad5c751ce4a9d344309aba7db43f69ed",
          "topics": [
            "0x8c0b5119d4cec7b284c6b1b39252a03d1e2f2d7451a5895562524c113bb952be",
            "0x7462746573745f6f726200000000000042616c616e6365730000000000000000"
          ],
          "data": "0x0000000000000000000000000000000000000000000000000000000000000060000000000000000000000000000000000000000000000000000000000000000000000000000000000000000000000000000000000000000000000000000000a000000000000000000000000000000000000000000000000000000000000000010000000000000000000000002d983acb11875cba7cc96c91676e4a08d864fea400000000000000000000000000000000000000000000000000000000000000200000000000000000000000000000000000000000000001e7e4171bf4d3a00000",
          "blockHash": "0xabb6d899fc6af700d771d8d127f344a69c4f380ef466604ec93fe90c59b08b97",
          "blockNumber": "0x16cf5b",
          "transactionHash": "0x401ad89b9789fb3c6eef73f864bfcbc0063a223a12a53bbf213dfc2fb5890585",
          "transactionIndex": "0x2",
          "logIndex": "0x3",
          "removed": false
        },
        {
          "address": "0xe45e8338ad5c751ce4a9d344309aba7db43f69ed",
          "topics": [
            "0x8c0b5119d4cec7b284c6b1b39252a03d1e2f2d7451a5895562524c113bb952be",
            "0x7462746573745f6f726200000000000042616c616e6365730000000000000000"
          ],
          "data": "0x0000000000000000000000000000000000000000000000000000000000000060000000000000000000000000000000000000000000000000000000000000000000000000000000000000000000000000000000000000000000000000000000a0000000000000000000000000000000000000000000000000000000000000000100000000000000000000000018f74c31063b150ea934d6f28168552c838ace6b000000000000000000000000000000000000000000000000000000000000002000000000000000000000000000000000000000000000001b1ae4d6e2ef500000",
          "blockHash": "0xabb6d899fc6af700d771d8d127f344a69c4f380ef466604ec93fe90c59b08b97",
          "blockNumber": "0x16cf5b",
          "transactionHash": "0x401ad89b9789fb3c6eef73f864bfcbc0063a223a12a53bbf213dfc2fb5890585",
          "transactionIndex": "0x2",
          "logIndex": "0x4",
          "removed": false
        },
        {
          "address": "0xdb8ca558d7988d5a436b3d72479050a1bec0e8cc",
          "topics": [
            "0xddf252ad1be2c89b69c2b068fc378daa952ba7f163c4a11628f55a4df523b3ef",
            "0x0000000000000000000000002d983acb11875cba7cc96c91676e4a08d864fea4",
            "0x00000000000000000000000018f74c31063b150ea934d6f28168552c838ace6b"
          ],
          "data": "0x00000000000000000000000000000000000000000000001b1ae4d6e2ef500000",
          "blockHash": "0xabb6d899fc6af700d771d8d127f344a69c4f380ef466604ec93fe90c59b08b97",
          "blockNumber": "0x16cf5b",
          "transactionHash": "0x401ad89b9789fb3c6eef73f864bfcbc0063a223a12a53bbf213dfc2fb5890585",
          "transactionIndex": "0x2",
          "logIndex": "0x5",
          "removed": false
        }
      ],
      "logsBloom": "0x00000000000000000000000000000000000000001000000000000000000000000000000000000000000000000000000000000000040000400000000020000000000000800000000000000008000008000000000000080008000000000100000000000002000000000000008000000000000000000000000000000010000000000000000000000000000000000000000000000000000000000000000000000000000000000000000020000000000000000000000000000008080080000000000000000002000000000000000004000000010000000000000000000000000000000000000400000000000000000000000000000000000000000000000000000000",
      "type": "0x2",
      "transactionHash": "0x401ad89b9789fb3c6eef73f864bfcbc0063a223a12a53bbf213dfc2fb5890585",
      "transactionIndex": "0x2",
      "blockHash": "0xabb6d899fc6af700d771d8d127f344a69c4f380ef466604ec93fe90c59b08b97",
      "blockNumber": "0x16cf5b",
      "gasUsed": "0x24800",
      "effectiveGasPrice": "0x186d2",
      "from": "0x2d983acb11875cba7cc96c91676e4a08d864fea4",
      "to": "0xdb8ca558d7988d5a436b3d72479050a1bec0e8cc",
      "contractAddress": null,
      "l1Fee": "0x157f9538ed",
      "l1GasPrice": "0x12a41b6ea",
      "l1GasUsed": "0x968"
    }
  ],
  "libraries": [],
  "pending": [],
  "returns": {},
  "timestamp": 1715159608,
  "chain": 17069,
  "commit": "f63f5db"
}